{
  "contractName": "PaymentReceiver",
  "abi": [
    {
      "inputs": [],
      "stateMutability": "nonpayable",
      "type": "constructor"
    },
    {
      "anonymous": false,
      "inputs": [
        {
          "indexed": true,
          "internalType": "address",
          "name": "buyer",
          "type": "address"
        },
        {
          "indexed": false,
          "internalType": "uint256",
          "name": "value",
          "type": "uint256"
        },
        {
          "indexed": false,
          "internalType": "address",
          "name": "token",
          "type": "address"
        },
        {
          "indexed": false,
          "internalType": "bytes32",
          "name": "paymentId",
          "type": "bytes32"
        }
      ],
      "name": "PaymentReceived",
      "type": "event"
    },
    {
      "stateMutability": "payable",
      "type": "fallback",
      "payable": true
    },
    {
      "stateMutability": "payable",
      "type": "receive",
      "payable": true
    },
    {
      "inputs": [],
      "name": "getBalance",
      "outputs": [
        {
          "internalType": "uint256",
          "name": "",
          "type": "uint256"
        }
      ],
      "stateMutability": "view",
      "type": "function",
      "constant": true
    },
    {
      "inputs": [],
      "name": "release",
      "outputs": [],
      "stateMutability": "nonpayable",
      "type": "function"
    },
    {
      "inputs": [
        {
          "internalType": "contract IERC20",
          "name": "erc20",
          "type": "address"
        },
        {
          "internalType": "uint256",
          "name": "amount",
          "type": "uint256"
        },
        {
          "internalType": "uint256",
          "name": "paymentId",
          "type": "uint256"
        }
      ],
      "name": "payWithErc20",
      "outputs": [],
      "stateMutability": "nonpayable",
      "type": "function"
    }
  ],
  "bytecode": "0x60a060405273eeeeeeeeeeeeeeeeeeeeeeeeeeeeeeeeeeeeeeee73ffffffffffffffffffffffffffffffffffffffff1660809073ffffffffffffffffffffffffffffffffffffffff1681525034801561005757600080fd5b50336000806101000a81548173ffffffffffffffffffffffffffffffffffffffff021916908373ffffffffffffffffffffffffffffffffffffffff16021790555060805161088c6100b8600039600081816078015260ef015261088c6000f3fe6080604052600436106100385760003560e01c806312065fe01461013557806386d1a69f14610160578063ea385e1514610177576100b4565b366100b4573373ffffffffffffffffffffffffffffffffffffffff167ffef645de4a9a7bf073e4547fda485ea49ee872b827b98379f30bfe60d6aef761347f00000000000000000000000000000000000000000000000000000000000000006000801b6040516100aa9392919061047b565b60405180910390a2005b3373ffffffffffffffffffffffffffffffffffffffff167ffef645de4a9a7bf073e4547fda485ea49ee872b827b98379f30bfe60d6aef761347f00000000000000000000000000000000000000000000000000000000000000006000369061011c91906104ca565b60405161012b9392919061047b565b60405180910390a2005b34801561014157600080fd5b5061014a6101a0565b6040516101579190610529565b60405180910390f35b34801561016c57600080fd5b506101756101a8565b005b34801561018357600080fd5b5061019e600480360381019061019991906105b3565b61030d565b005b600047905090565b60008054906101000a900473ffffffffffffffffffffffffffffffffffffffff1673ffffffffffffffffffffffffffffffffffffffff163373ffffffffffffffffffffffffffffffffffffffff1614610236576040517f08c379a000000000000000000000000000000000000000000000000000000000815260040161022d90610689565b60405180910390fd5b60008060009054906101000a900473ffffffffffffffffffffffffffffffffffffffff1673ffffffffffffffffffffffffffffffffffffffff166102786101a0565b604051610284906106da565b60006040518083038185875af1925050503d80600081146102c1576040519150601f19603f3d011682016040523d82523d6000602084013e6102c6565b606091505b505090508061030a576040517f08c379a00000000000000000000000000000000000000000000000000000000081526004016103019061073b565b60405180910390fd5b50565b8273ffffffffffffffffffffffffffffffffffffffff166323b872dd3360008054906101000a900473ffffffffffffffffffffffffffffffffffffffff16856040518463ffffffff1660e01b815260040161036a939291906107ba565b6020604051808303816000875af1158015610389573d6000803e3d6000fd5b505050506040513d601f19601f820116820180604052508101906103ad9190610829565b503373ffffffffffffffffffffffffffffffffffffffff167ffef645de4a9a7bf073e4547fda485ea49ee872b827b98379f30bfe60d6aef76183858460001b6040516103fb9392919061047b565b60405180910390a2505050565b6000819050919050565b61041b81610408565b82525050565b600073ffffffffffffffffffffffffffffffffffffffff82169050919050565b600061044c82610421565b9050919050565b61045c81610441565b82525050565b6000819050919050565b61047581610462565b82525050565b60006060820190506104906000830186610412565b61049d6020830185610453565b6104aa604083018461046c565b949350505050565b600082905092915050565b600082821b905092915050565b60006104d683836104b2565b826104e18135610462565b925060208210156105215761051c7fffffffffffffffffffffffffffffffffffffffffffffffffffffffffffffffff836020036008026104bd565b831692505b505092915050565b600060208201905061053e6000830184610412565b92915050565b600080fd5b600061055482610441565b9050919050565b61056481610549565b811461056f57600080fd5b50565b6000813590506105818161055b565b92915050565b61059081610408565b811461059b57600080fd5b50565b6000813590506105ad81610587565b92915050565b6000806000606084860312156105cc576105cb610544565b5b60006105da86828701610572565b93505060206105eb8682870161059e565b92505060406105fc8682870161059e565b9150509250925092565b600082825260208201905092915050565b7f6f6e6c7920616c6c6f77656420746f2062652063616c6c65642062792074686560008201527f206f776e65720000000000000000000000000000000000000000000000000000602082015250565b6000610673602683610606565b915061067e82610617565b604082019050919050565b600060208201905081810360008301526106a281610666565b9050919050565b600081905092915050565b50565b60006106c46000836106a9565b91506106cf826106b4565b600082019050919050565b60006106e5826106b7565b9150819050919050565b7f4661696c656420746f2072656c65617365204574680000000000000000000000600082015250565b6000610725601583610606565b9150610730826106ef565b602082019050919050565b6000602082019050818103600083015261075481610718565b9050919050565b6000819050919050565b600061078061077b61077684610421565b61075b565b610421565b9050919050565b600061079282610765565b9050919050565b60006107a482610787565b9050919050565b6107b481610799565b82525050565b60006060820190506107cf6000830186610453565b6107dc60208301856107ab565b6107e96040830184610412565b949350505050565b60008115159050919050565b610806816107f1565b811461081157600080fd5b50565b600081519050610823816107fd565b92915050565b60006020828403121561083f5761083e610544565b5b600061084d84828501610814565b9150509291505056fea2646970667358221220c68fc9b8777698446903a965740bdd75966242ebbd439d03d5d46d04dfe8508164736f6c634300080b0033",
  "immutableReferences": {
    "76": [
      {
        "length": 32,
        "start": 120
      },
      {
        "length": 32,
        "start": 239
      }
    ]
  },
  "source": "// SPDX-License-Identifier: MIT\npragma solidity ^0.8.0;\n\nimport \"./IERC20.sol\";\n\ncontract PaymentReceiver {\n    address payable private _owner;\n\n    //https://docs.instadapp.io/connectors/mainnet/1proto\n    address immutable ETH_ADDRESS = 0xEeeeeEeeeEeEeeEeEeEeeEEEeeeeEeeeeeeeEEeE;\n    modifier onlyOwner() {\n        require(msg.sender == _owner, \"only allowed to be called by the owner\");\n        _;\n    }\n\n    constructor() {\n        _owner = payable(msg.sender);\n    }\n\n    event PaymentReceived(\n        address indexed buyer,\n        uint256 value,\n        address token,\n        bytes32 paymentId\n    );\n\n    receive() external payable {\n        emit PaymentReceived(msg.sender, msg.value, ETH_ADDRESS, bytes32(0));\n    }\n\n    fallback() external payable {\n        emit PaymentReceived(\n            msg.sender,\n            msg.value,\n            ETH_ADDRESS,\n            bytes32(msg.data)\n        );\n    }\n\n    function getBalance() public view returns (uint256) {\n        return address(this).balance;\n    }\n\n    function release() external onlyOwner {\n        (bool ok, ) = _owner.call{value: getBalance()}(\"\");\n        require(ok, \"Failed to release Eth\");\n    }\n\n    function payWithErc20(\n        IERC20 erc20,\n        uint256 amount,\n        uint256 paymentId\n    ) external {\n        erc20.transferFrom(msg.sender, _owner, amount);\n        emit PaymentReceived(\n            msg.sender,\n            amount,\n            address(erc20),\n            bytes32(paymentId)\n        );\n    }\n}\n",
  "sourcePath": "/home/stadolf/work/books.eth/contracts/contracts/PaymentReceiver.sol",
  "compiler": {
    "name": "solc",
    "version": "0.8.11+commit.d7f03943.Emscripten.clang"
  },
  "schemaVersion": "3.4.4",
  "updatedAt": "2022-02-01T12:09:31.414Z",
  "networkType": "ethereum",
  "devdoc": {
    "kind": "dev",
    "methods": {},
    "version": 1
  },
  "userdoc": {
    "kind": "user",
    "methods": {},
    "version": 1
  }
}